BL51 BANKED LINKER/LOCATER V6.22                                                        06/14/2024  10:41:10  PAGE 1


BL51 BANKED LINKER/LOCATER V6.22, INVOKED BY:
C:\KEIL\C51\BIN\BL51.EXE STARTUP.obj, Code.obj TO RunningWaterLamps RAMSIZE (256)


MEMORY MODEL: SMALL


INPUT MODULES INCLUDED:
  STARTUP.obj (?C_STARTUP)
  Code.obj (CODE)


LINK MAP OF MODULE:  RunningWaterLamps (?C_STARTUP)


            TYPE    BASE      LENGTH    RELOCATION   SEGMENT NAME
            -----------------------------------------------------

            * * * * * * *   D A T A   M E M O R Y   * * * * * * *
            REG     0000H     0008H     ABSOLUTE     "REG BANK 0"
            IDATA   0008H     0001H     UNIT         ?STACK

            * * * * * * *   C O D E   M E M O R Y   * * * * * * *
            CODE    0000H     0003H     ABSOLUTE     
                    0003H     07FDH                  *** GAP ***
            CODE    0800H     004CH     UNIT         ?PR?MAIN?CODE
            CODE    084CH     000CH     UNIT         ?C_C51STARTUP



OVERLAY MAP OF MODULE:   RunningWaterLamps (?C_STARTUP)


SEGMENT
  +--> CALLED SEGMENT
---------------------
?C_C51STARTUP
  +--> ?PR?MAIN?CODE



SYMBOL TABLE OF MODULE:  RunningWaterLamps (?C_STARTUP)

  VALUE           TYPE          NAME
  ----------------------------------

  -------         MODULE        ?C_STARTUP
  C:084CH         SEGMENT       ?C_C51STARTUP
  I:0008H         SEGMENT       ?STACK
  C:0000H         PUBLIC        ?C_STARTUP
  D:00E0H         SYMBOL        ACC
  D:00F0H         SYMBOL        B
  D:0083H         SYMBOL        DPH
  D:0082H         SYMBOL        DPL
  N:0000H         SYMBOL        IBPSTACK
  N:0100H         SYMBOL        IBPSTACKTOP
  N:0080H         SYMBOL        IDATALEN
  C:084FH         SYMBOL        IDATALOOP
BL51 BANKED LINKER/LOCATER V6.22                                                      06/14/2024  10:41:10  PAGE 2


  N:0000H         SYMBOL        PBPSTACK
  N:0100H         SYMBOL        PBPSTACKTOP
  N:0000H         SYMBOL        PDATALEN
  N:0000H         SYMBOL        PDATASTART
  N:0000H         SYMBOL        PPAGE
  N:0000H         SYMBOL        PPAGEENABLE
  D:00A0H         SYMBOL        PPAGE_SFR
  D:0081H         SYMBOL        SP
  C:084CH         SYMBOL        STARTUP1
  N:0000H         SYMBOL        XBPSTACK
  N:0000H         SYMBOL        XBPSTACKTOP
  N:0000H         SYMBOL        XDATALEN
  N:0000H         SYMBOL        XDATASTART
  C:0000H         LINE#         126
  C:084CH         LINE#         133
  C:084EH         LINE#         134
  C:084FH         LINE#         135
  C:0850H         LINE#         136
  C:0852H         LINE#         185
  C:0855H         LINE#         196
  -------         ENDMOD        ?C_STARTUP

  -------         MODULE        CODE
  C:0000H         SYMBOL        _ICE_DUMMY_
  D:0090H         PUBLIC        P1
  D:00A0H         PUBLIC        P2
  D:00B0H         PUBLIC        P3
  D:00A8H         PUBLIC        IE
  D:00B8H         PUBLIC        IP
  C:0800H         PUBLIC        main
  D:0098H         PUBLIC        SCON
  D:0088H         PUBLIC        TCON
  D:00C8H         PUBLIC        T2CON
  D:00D0H         PUBLIC        PSW
  -------         PROC          MAIN
  -------         DO            
  D:0006H         SYMBOL        i
  D:0005H         SYMBOL        cnt
  -------         ENDDO         
  C:0800H         LINE#         2
  C:0800H         LINE#         3
  C:0800H         LINE#         4
  C:0803H         LINE#         5
  C:0803H         LINE#         6
  C:0803H         LINE#         7
  C:0803H         LINE#         8
  C:0805H         LINE#         9
  C:0813H         LINE#         10
  C:0821H         LINE#         11
  C:0825H         LINE#         12
  C:082DH         LINE#         13
  C:083BH         LINE#         14
  C:0849H         LINE#         15
  -------         ENDPROC       MAIN
  -------         ENDMOD        CODE

******************************************************************************
BL51 BANKED LINKER/LOCATER V6.22                                                      06/14/2024  10:41:10  PAGE 3


* RESTRICTED VERSION WITH 0800H BYTE CODE SIZE LIMIT; USED: 005BH BYTE ( 4%) *
******************************************************************************

Program Size: data=9.0 xdata=0 code=91
LINK/LOCATE RUN COMPLETE.  0 WARNING(S),  0 ERROR(S)
