BL51 BANKED LINKER/LOCATER V6.22                                                        06/14/2024  11:47:16  PAGE 1


BL51 BANKED LINKER/LOCATER V6.22, INVOKED BY:
C:\KEIL\C51\BIN\BL51.EXE STARTUP.obj, code.obj TO button RAMSIZE (256)


MEMORY MODEL: SMALL


INPUT MODULES INCLUDED:
  STARTUP.obj (?C_STARTUP)
  code.obj (CODE)
  C:\KEIL\C51\LIB\C51S.LIB (?C_INIT)
  C:\KEIL\C51\LIB\C51S.LIB (?C?SIDIV)
  C:\KEIL\C51\LIB\C51S.LIB (?C?UIDIV)


LINK MAP OF MODULE:  button (?C_STARTUP)


            TYPE    BASE      LENGTH    RELOCATION   SEGMENT NAME
            -----------------------------------------------------

            * * * * * * *   D A T A   M E M O R Y   * * * * * * *
            REG     0000H     0008H     ABSOLUTE     "REG BANK 0"
                    0008H     0018H                  *** GAP ***
            BIT     0020H.0   0000H.2   UNIT         ?BI?CODE
            BIT     0020H.2   0000H.1   UNIT         _BIT_GROUP_
                    0020H.3   0000H.5                *** GAP ***
            DATA    0021H     0020H     UNIT         ?DT?CODE
            IDATA   0041H     0001H     UNIT         ?STACK

            * * * * * * *   C O D E   M E M O R Y   * * * * * * *
            CODE    0000H     0003H     ABSOLUTE     
                    0003H     0008H                  *** GAP ***
            CODE    000BH     0003H     ABSOLUTE     
                    000EH     07F2H                  *** GAP ***
            CODE    0800H     00FCH     UNIT         ?PR?INTERRUPTTIMER0?CODE
            CODE    08FCH     00F9H     UNIT         ?PR?MAIN?CODE
            CODE    09F5H     008CH     UNIT         ?C_C51STARTUP
            CODE    0A81H     008BH     UNIT         ?C?LIB_CODE
            CODE    0B0CH     002BH     UNIT         ?C_INITSEG



OVERLAY MAP OF MODULE:   button (?C_STARTUP)


SEGMENT                             BIT_GROUP 
  +--> CALLED SEGMENT            START    LENGTH
------------------------------------------------
?C_C51STARTUP                    -----    -----
  +--> ?PR?MAIN?CODE
  +--> ?C_INITSEG

?PR?MAIN?CODE                    0020H.2  0000H.1



SYMBOL TABLE OF MODULE:  button (?C_STARTUP)
BL51 BANKED LINKER/LOCATER V6.22                                                      06/14/2024  11:47:16  PAGE 2



  VALUE           TYPE          NAME
  ----------------------------------

  -------         MODULE        ?C_STARTUP
  C:09F5H         SEGMENT       ?C_C51STARTUP
  I:0041H         SEGMENT       ?STACK
  C:0000H         PUBLIC        ?C_STARTUP
  D:00E0H         SYMBOL        ACC
  D:00F0H         SYMBOL        B
  D:0083H         SYMBOL        DPH
  D:0082H         SYMBOL        DPL
  N:0000H         SYMBOL        IBPSTACK
  N:0100H         SYMBOL        IBPSTACKTOP
  N:0080H         SYMBOL        IDATALEN
  C:09F8H         SYMBOL        IDATALOOP
  N:0000H         SYMBOL        PBPSTACK
  N:0100H         SYMBOL        PBPSTACKTOP
  N:0000H         SYMBOL        PDATALEN
  N:0000H         SYMBOL        PDATASTART
  N:0000H         SYMBOL        PPAGE
  N:0000H         SYMBOL        PPAGEENABLE
  D:00A0H         SYMBOL        PPAGE_SFR
  D:0081H         SYMBOL        SP
  C:09F5H         SYMBOL        STARTUP1
  N:0000H         SYMBOL        XBPSTACK
  N:0000H         SYMBOL        XBPSTACKTOP
  N:0000H         SYMBOL        XDATALEN
  N:0000H         SYMBOL        XDATASTART
  C:0000H         LINE#         126
  C:09F5H         LINE#         133
  C:09F7H         LINE#         134
  C:09F8H         LINE#         135
  C:09F9H         LINE#         136
  C:09FBH         LINE#         185
  C:09FEH         LINE#         196
  -------         ENDMOD        ?C_STARTUP

  -------         MODULE        CODE
  C:0000H         SYMBOL        _ICE_DUMMY_
  D:0080H         PUBLIC        P0
  D:0090H         PUBLIC        P1
  D:00A0H         PUBLIC        P2
  D:00B0H         PUBLIC        P3
  B:00A8H.7       PUBLIC        EA
  C:0800H         PUBLIC        InterruptTimer0
  D:0022H         PUBLIC        curMs
  D:00A8H         PUBLIC        IE
  D:00B8H         PUBLIC        IP
  B:00B0H.3       PUBLIC        KEY1
  D:0024H         PUBLIC        targetLed
  C:08FCH         PUBLIC        main
  D:0025H         PUBLIC        ledsCode
  B:00A0H.2       PUBLIC        A38
  B:00A0H.3       PUBLIC        B38
  B:00A0H.4       PUBLIC        C38
  D:0098H         PUBLIC        SCON
BL51 BANKED LINKER/LOCATER V6.22                                                      06/14/2024  11:47:16  PAGE 3


  D:0089H         PUBLIC        TMOD
  D:0088H         PUBLIC        TCON
  D:002DH         PUBLIC        ledChar
  D:003DH         PUBLIC        flag1s
  B:00A8H.1       PUBLIC        ET0
  D:008CH         PUBLIC        TH0
  D:008AH         PUBLIC        TL0
  B:0020H.0       PUBLIC        KeySta
  B:0088H.4       PUBLIC        TR0
  B:0020H.1       PUBLIC        isTwoMs
  D:003EH         PUBLIC        countdown
  D:00C8H         PUBLIC        T2CON
  D:0040H         PUBLIC        keyCnt
  D:00D0H         PUBLIC        PSW
  -------         PROC          MAIN
  -------         DO            
  B:0020H.2       SYMBOL        backup
  D:0003H         SYMBOL        cnt
  -------         ENDDO         
  C:08FCH         LINE#         24
  C:08FCH         LINE#         25
  C:08FEH         LINE#         26
  C:0900H         LINE#         28
  C:0902H         LINE#         29
  C:0905H         LINE#         30
  C:0908H         LINE#         31
  C:090BH         LINE#         32
  C:090DH         LINE#         33
  C:090FH         LINE#         36
  C:091CH         LINE#         37
  C:0929H         LINE#         38
  C:0932H         LINE#         39
  C:0935H         LINE#         40
  C:0937H         LINE#         43
  C:0943H         LINE#         44
  C:0957H         LINE#         45
  C:096BH         LINE#         47
  C:096BH         LINE#         48
  C:0973H         LINE#         49
  C:0976H         LINE#         50
  C:0977H         LINE#         51
  C:0979H         LINE#         52
  C:0979H         LINE#         60
  C:097DH         LINE#         62
  C:097DH         LINE#         65
  C:0982H         LINE#         66
  C:0985H         LINE#         67
  C:0992H         LINE#         69
  C:099AH         LINE#         70
  C:09A7H         LINE#         71
  C:09BBH         LINE#         72
  C:09CFH         LINE#         73
  C:09CFH         LINE#         76
  C:09DCH         LINE#         77
  C:09E9H         LINE#         78
  C:09F2H         LINE#         79
  C:09F2H         LINE#         80
BL51 BANKED LINKER/LOCATER V6.22                                                      06/14/2024  11:47:16  PAGE 4


  -------         ENDPROC       MAIN
  -------         PROC          INTERRUPTTIMER0
  -------         DO            
  D:0021H         SYMBOL        keybuf
  -------         ENDDO         
  C:0800H         LINE#         82
  C:080FH         LINE#         84
  C:0812H         LINE#         85
  C:0815H         LINE#         86
  C:081DH         LINE#         87
  C:081FH         LINE#         88
  C:082AH         LINE#         89
  C:0830H         LINE#         90
  C:0833H         LINE#         91
  C:0833H         LINE#         92
  C:0836H         LINE#         93
  C:085FH         LINE#         94
  C:086DH         LINE#         95
  C:087BH         LINE#         96
  C:0889H         LINE#         97
  C:0897H         LINE#         98
  C:08A5H         LINE#         99
  C:08B3H         LINE#         100
  C:08C1H         LINE#         101
  C:08D3H         LINE#         102
  C:08D3H         LINE#         103
  C:08D3H         LINE#         105
  C:08D6H         LINE#         108
  C:08E2H         LINE#         109
  C:08E4H         LINE#         110
  C:08E6H         LINE#         111
  C:08EDH         LINE#         112
  C:08EFH         LINE#         113
  C:08EFH         LINE#         115
  C:08EFH         LINE#         116
  -------         ENDPROC       INTERRUPTTIMER0
  -------         ENDMOD        CODE

  -------         MODULE        ?C?SIDIV
  C:0A81H         PUBLIC        ?C?SIDIV
  -------         ENDMOD        ?C?SIDIV

  -------         MODULE        ?C?UIDIV
  C:0AB7H         PUBLIC        ?C?UIDIV
  -------         ENDMOD        ?C?UIDIV

******************************************************************************
* RESTRICTED VERSION WITH 0800H BYTE CODE SIZE LIMIT; USED: 0231H BYTE (27%) *
******************************************************************************

Program Size: data=41.3 xdata=0 code=829
LINK/LOCATE RUN COMPLETE.  0 WARNING(S),  0 ERROR(S)
