:030000000209F5FD
:0C09F500787FE4F6D8FD758140020A3CD2
:100B0C00102DC0F9A4B0999282F880908883C6A168
:100B1C00868E012400023E008D02220000013D0061
:0A0B2C00C180014000C1810121FFDA
:1008FC00D2027B01D2AF758901758CF8758ACDD285
:10090C00A9D28CE54075F0648475F00A8485F02CCE
:10091C00E54075F00A8475F00A8485F02BE5407586
:10092C00F00A8485F02AE4F529F528AE3EAF3FFCA9
:10093C007D0A120A818D25AE3EAF3F7C007D0A12E6
:10094C000A817C007D0A120A818D26AE3EAF3F7C67
:10095C00007D64120A817C007D0A120A818D27A217
:10096C0000300201B3500A2002030B0540A2009292
:10097C0002E53DB401E9E4F53DEB20E046C3E53E7C
:10098C0064809480403DE53F153F7002153EAE3EBD
:10099C00AF3F7C007D0A120A818D25AE3EAF3F7CB5
:1009AC00007D0A120A817C007D0A120A818D26AE16
:1009BC003EAF3F7C007D64120A817C007D0A120AE6
:1009CC00818D27E54075F0648475F00A8485F02CE0
:1009DC00E54075F00A8475F00A8485F02BE54075C6
:0909EC00F00A8485F02A02096B6F
:03000B00020800E8
:0F080000C0E0C083C082C0D075D000C000C00768
:10080F00758CFC758A670523E52370020522B201FA
:10081F00C394E8E522648094834009752200752310
:10082F0000753D01758000E524B4080040030208FF
:10083F00D3900847F828287302085F02086D020852
:10084F007B0208890208970208A50208B30208C1B3
:10085F00C2A2C2A3C2A40524742D25258061D2A2F1
:10086F00C2A3C2A40524742D25268053C2A2D2A3ED
:10087F00C2A40524742D25278045D2A2D2A3C2A4D9
:10088F000524742D25288037C2A2C2A3D2A4052423
:10089F00742D25298029D2A2C2A3D2A40524742D98
:1008AF00252A801BC2A2D2A3D2A40524742D252BE6
:1008BF00800DD2A2D2A3D2A4752400742D252CF8BA
:1008CF00E6F4F580300119E52125E0FFA2B3E4330A
:1008DF004FF5217004C2008007E521B4FF02D2005A
:0D08EF00D007D000D0D0D082D083D0E0322E
:100A01000208FCE493A3F8E493A34003F68001F207
:100A110008DFF48029E493A3F85407240CC8C333F6
:100A2100C4540F4420C8834004F456800146F6DFC5
:100A3100E4800B0102040810204080900B0CE47E3E
:100A4100019360BCA3FF543F30E509541FFEE493BA
:100A5100A360010ECF54C025E060A840B8E493A381
:100A6100FAE493A3F8E493A3C8C582C8CAC583CAAC
:100A7100F0A3C8C582C8CAC583CADFE9DEE780BE64
:010B360000BE
:100A8100C2D5EC30E709B2D5E4C39DFDE49CFCEE90
:100A910030E715B2D5E4C39FFFE49EFE120AB7C347
:100AA100E49DFDE49CFC8003120AB730D507C3E442
:060AB1009FFFE49EFE22FF
:100AB700BC000BBE0029EF8DF084FFADF022E4CC23
:100AC700F875F008EF2FFFEE33FEEC33FCEE9DECEC
:100AD700984005FCEE9DFE0FD5F0E9E4CEFD22ED32
:100AE700F8F5F0EE8420D21CFEADF075F008EF2F7C
:100AF700FFED33FD4007985006D5F0F222C398FD6D
:050B07000FD5F0EA2209
:00000001FF
