:030000000208DA19
:0C08DA00787FE4F6D8FD75812502092125
:100A72001013C0F9A4B0999282F880908883C6A11D
:100A8200868E010A000224000002080000012300F1
:1009F100D2AF758910758DFC758B67D2ABD28E75B0
:100A01001201E4F511751001750F07750E05AE247D
:100A1100AF25FC8022E523B401FBE4F523D3E525D2
:100A210094E7E52464809483503E0525E525700212
:100A31000524AE24FF7C007D0A1209668D0BAE24CD
:100A4100AF257C007D0A1209667C007D0A120966C9
:100A51008D0CAE24AF257C007D641209667C007D7F
:100A61000A1209668D0D80ADE4F50BF50CF50D80CC
:010A7100A4E0
:03001B00020800D8
:10080000C0E0C083C082C0D075D000C000758DFC30
:10081000758B670509E50970020508C394E8E508CA
:10082000648094834009750800750900752301757B
:100830008000E50AB4080040030208CF900843F89E
:1008400028287302085B02086902087702088502FB
:1008500008930208A10208AF0208BDC2A2C2A3C247
:10086000A4050A7413250B8061D2A2C2A3C2A405F9
:100870000A7413250C8053C2A2D2A3C2A4050A7421
:1008800013250D8045D2A2D2A3C2A4050A74132554
:100890000E8037C2A2C2A3D2A4050A7413250F800A
:1008A00029D2A2C2A3D2A4050A74132510801BC2A8
:1008B000A2D2A3D2A4050A74132511800DD2A2D20C
:1008C000A3D2A4750A0074132512F8E6F4F580D0BB
:0A08D00000D0D0D082D083D0E032F7
:1008E6000209F1E493A3F8E493A34003F68001F22E
:1008F60008DFF48029E493A3F85407240CC8C33313
:10090600C4540F4420C8834004F456800146F6DFE1
:10091600E4800B0102040810204080900A72E47EF5
:10092600019360BCA3FF543F30E509541FFEE493D6
:10093600A360010ECF54C025E060A840B8E493A39D
:10094600FAE493A3F8E493A3C8C582C8CAC583CAC8
:10095600F0A3C8C582C8CAC583CADFE9DEE780BE80
:010A92000063
:10096600C2D5EC30E709B2D5E4C39DFDE49CFCEEAC
:1009760030E715B2D5E4C39FFFE49EFE12099CC37F
:10098600E49DFDE49CFC800312099C30D507C3E47A
:060996009FFFE49EFE221B
:10099C00BC000BBE0029EF8DF084FFADF022E4CC3F
:1009AC00F875F008EF2FFFEE33FEEC33FCEE9DEC08
:1009BC00984005FCEE9DFE0FD5F0E9E4CEFD22ED4E
:1009CC00F8F5F0EE8420D21CFEADF075F008EF2F98
:1009DC00FFED33FD4007985006D5F0F222C398FD89
:0509EC000FD5F0EA2226
:00000001FF
