BL51 BANKED LINKER/LOCATER V6.22                                                        06/14/2024  11:21:18  PAGE 1


BL51 BANKED LINKER/LOCATER V6.22, INVOKED BY:
C:\KEIL\C51\BIN\BL51.EXE STARTUP.obj, Code.obj TO DigitalTubes RAMSIZE (256)


MEMORY MODEL: SMALL


INPUT MODULES INCLUDED:
  STARTUP.obj (?C_STARTUP)
  Code.obj (CODE)
  C:\KEIL\C51\LIB\C51S.LIB (?C_INIT)
  C:\KEIL\C51\LIB\C51S.LIB (?C?SIDIV)
  C:\KEIL\C51\LIB\C51S.LIB (?C?UIDIV)


LINK MAP OF MODULE:  DigitalTubes (?C_STARTUP)


            TYPE    BASE      LENGTH    RELOCATION   SEGMENT NAME
            -----------------------------------------------------

            * * * * * * *   D A T A   M E M O R Y   * * * * * * *
            REG     0000H     0008H     ABSOLUTE     "REG BANK 0"
            DATA    0008H     001EH     UNIT         ?DT?CODE
            IDATA   0026H     0001H     UNIT         ?STACK

            * * * * * * *   C O D E   M E M O R Y   * * * * * * *
            CODE    0000H     0003H     ABSOLUTE     
                    0003H     0018H                  *** GAP ***
            CODE    001BH     0003H     ABSOLUTE     
                    001EH     07E2H                  *** GAP ***
            CODE    0800H     00DAH     UNIT         ?PR?INTERRUPTTIMER1?CODE
            CODE    08DAH     008CH     UNIT         ?C_C51STARTUP
            CODE    0966H     008BH     UNIT         ?C?LIB_CODE
            CODE    09F1H     0081H     UNIT         ?PR?MAIN?CODE
            CODE    0A72H     0021H     UNIT         ?C_INITSEG



OVERLAY MAP OF MODULE:   DigitalTubes (?C_STARTUP)


SEGMENT
  +--> CALLED SEGMENT
---------------------
?C_C51STARTUP
  +--> ?PR?MAIN?CODE
  +--> ?C_INITSEG



SYMBOL TABLE OF MODULE:  DigitalTubes (?C_STARTUP)

  VALUE           TYPE          NAME
  ----------------------------------

  -------         MODULE        ?C_STARTUP
  C:08DAH         SEGMENT       ?C_C51STARTUP
BL51 BANKED LINKER/LOCATER V6.22                                                      06/14/2024  11:21:18  PAGE 2


  I:0026H         SEGMENT       ?STACK
  C:0000H         PUBLIC        ?C_STARTUP
  D:00E0H         SYMBOL        ACC
  D:00F0H         SYMBOL        B
  D:0083H         SYMBOL        DPH
  D:0082H         SYMBOL        DPL
  N:0000H         SYMBOL        IBPSTACK
  N:0100H         SYMBOL        IBPSTACKTOP
  N:0080H         SYMBOL        IDATALEN
  C:08DDH         SYMBOL        IDATALOOP
  N:0000H         SYMBOL        PBPSTACK
  N:0100H         SYMBOL        PBPSTACKTOP
  N:0000H         SYMBOL        PDATALEN
  N:0000H         SYMBOL        PDATASTART
  N:0000H         SYMBOL        PPAGE
  N:0000H         SYMBOL        PPAGEENABLE
  D:00A0H         SYMBOL        PPAGE_SFR
  D:0081H         SYMBOL        SP
  C:08DAH         SYMBOL        STARTUP1
  N:0000H         SYMBOL        XBPSTACK
  N:0000H         SYMBOL        XBPSTACKTOP
  N:0000H         SYMBOL        XDATALEN
  N:0000H         SYMBOL        XDATASTART
  C:0000H         LINE#         126
  C:08DAH         LINE#         133
  C:08DCH         LINE#         134
  C:08DDH         LINE#         135
  C:08DEH         LINE#         136
  C:08E0H         LINE#         185
  C:08E3H         LINE#         196
  -------         ENDMOD        ?C_STARTUP

  -------         MODULE        CODE
  C:0000H         SYMBOL        _ICE_DUMMY_
  D:0080H         PUBLIC        P0
  D:0090H         PUBLIC        P1
  D:00A0H         PUBLIC        P2
  D:00B0H         PUBLIC        P3
  B:00A8H.7       PUBLIC        EA
  C:0800H         PUBLIC        InterruptTimer1
  D:0008H         PUBLIC        curMs
  D:00A8H         PUBLIC        IE
  D:00B8H         PUBLIC        IP
  D:000AH         PUBLIC        targetLed
  C:09F1H         PUBLIC        main
  D:000BH         PUBLIC        ledsCode
  B:00A0H.2       PUBLIC        A38
  B:00A0H.3       PUBLIC        B38
  B:00A0H.4       PUBLIC        C38
  D:0098H         PUBLIC        SCON
  D:0089H         PUBLIC        TMOD
  D:0088H         PUBLIC        TCON
  D:0013H         PUBLIC        ledChar
  D:0023H         PUBLIC        flag1s
  B:00A8H.3       PUBLIC        ET1
  D:008DH         PUBLIC        TH1
  D:008BH         PUBLIC        TL1
BL51 BANKED LINKER/LOCATER V6.22                                                      06/14/2024  11:21:18  PAGE 3


  B:0088H.6       PUBLIC        TR1
  D:0024H         PUBLIC        countdown
  D:00C8H         PUBLIC        T2CON
  D:00D0H         PUBLIC        PSW
  -------         PROC          MAIN
  C:09F1H         LINE#         18
  C:09F1H         LINE#         19
  C:09F3H         LINE#         20
  C:09F6H         LINE#         21
  C:09F9H         LINE#         22
  C:09FCH         LINE#         23
  C:09FEH         LINE#         24
  C:0A00H         LINE#         26
  C:0A03H         LINE#         27
  C:0A06H         LINE#         28
  C:0A09H         LINE#         29
  C:0A0CH         LINE#         30
  C:0A0FH         LINE#         33
  C:0A14H         LINE#         34
  C:0A14H         LINE#         35
  C:0A16H         LINE#         36
  C:0A16H         LINE#         37
  C:0A1BH         LINE#         38
  C:0A1EH         LINE#         40
  C:0A2BH         LINE#         42
  C:0A33H         LINE#         43
  C:0A3FH         LINE#         44
  C:0A53H         LINE#         45
  C:0A67H         LINE#         46
  C:0A69H         LINE#         47
  C:0A6CH         LINE#         48
  C:0A6EH         LINE#         49
  C:0A70H         LINE#         51
  C:0A70H         LINE#         52
  C:0A70H         LINE#         53
  -------         ENDPROC       MAIN
  -------         PROC          INTERRUPTTIMER1
  C:0800H         LINE#         57
  C:080DH         LINE#         58
  C:0810H         LINE#         59
  C:0813H         LINE#         60
  C:081BH         LINE#         61
  C:0826H         LINE#         62
  C:082CH         LINE#         63
  C:082FH         LINE#         64
  C:082FH         LINE#         65
  C:0832H         LINE#         66
  C:085BH         LINE#         67
  C:0869H         LINE#         68
  C:0877H         LINE#         69
  C:0885H         LINE#         70
  C:0893H         LINE#         71
  C:08A1H         LINE#         72
  C:08AFH         LINE#         73
  C:08BDH         LINE#         74
  C:08CFH         LINE#         75
  C:08CFH         LINE#         76
BL51 BANKED LINKER/LOCATER V6.22                                                      06/14/2024  11:21:18  PAGE 4


  C:08CFH         LINE#         77
  -------         ENDPROC       INTERRUPTTIMER1
  -------         ENDMOD        CODE

  -------         MODULE        ?C?SIDIV
  C:0966H         PUBLIC        ?C?SIDIV
  -------         ENDMOD        ?C?SIDIV

  -------         MODULE        ?C?UIDIV
  C:099CH         PUBLIC        ?C?UIDIV
  -------         ENDMOD        ?C?UIDIV

******************************************************************************
* RESTRICTED VERSION WITH 0800H BYTE CODE SIZE LIMIT; USED: 018DH BYTE (19%) *
******************************************************************************

Program Size: data=39.0 xdata=0 code=665
LINK/LOCATE RUN COMPLETE.  0 WARNING(S),  0 ERROR(S)
