:030000000209BC36
:0C09BC00787FE4F6D8FD758173020A0311
:100B5A00636F7300546F64617921006F7032004CC7
:040B6A00656432008C
:040B7900020800006E
:0B0B6E00D2AF7F807E25120B3280FE8C
:0A0AF6008B6E8A6F89708C718D720F
:100B0000E4FFFEC3EF9572E5716480F8EE648098AF
:100B1000501FAB6E0570E570AA6F7002056F14F977
:100B2000120800F5993099FDC2990FBF00010E809F
:010B3000D2F2
:010B310022A1
:060A48007B007A00790A30
:060A4E008B6E8A6F8970B7
:100A5400E5718572838573826B7008E96582700322
:100A6400EA658370037F0122E4FFFEAB6EAA6FA9DF
:100A7400708F828E83120819602AAB71AA72A973CF
:100A84008F828E83120819FD601AAB6EAA6FA9704B
:100A94008F828E831208196D60037F00220FBF00BE
:0D0AA400010E80C7EF4E7003FF80027F013E
:010AB1002222
:100B320075985053890F438920AB07AA06E4F9F848
:100B42007F807E70FDFC120AB2EFF404F58D858D74
:080B52008BC2ABD2ACD28E22A3
:03002300020914BB
:10091400C0E0C083C082C0D075D000C000C001C098
:0B09240002C003C004C005C006C007ED
:10092F0030986CC2980509E5097002050814240A6D
:10093F00F8A699D3E5099403E508648094804006EE
:10094F007508007509007571FF75720B75735A1272
:10095F000A48EF60127BFF7A0B795E7D067C0012EE
:10096F000AF675A0F0801F7571FF75720B757365B0
:10097F00120A48EF60197BFF7A0B79697D047C00BE
:10098F00120AF675A00F750800750900750A003078
:04099F009902C2995E
:1009A300D007D006D005D004D003D002D001D000A8
:0909B300D0D0D082D083D0E03214
:1009C800020B6EE493A3F8E493A34003F68001F2CC
:1009D80008DFF48029E493A3F85407240CC8C33330
:1009E800C4540F4420C8834004F456800146F6DFFF
:1009F800E4800B0102040810204080900B79E47E0B
:100A0800019360BCA3FF543F30E509541FFEE493F3
:100A1800A360010ECF54C025E060A840B8E493A3BA
:100A2800FAE493A3F8E493A3C8C582C8CAC583CAE5
:100A3800F0A3C8C582C8CAC583CADFE9DEE780BE9D
:010B7D000077
:10080000BB010689828A83E0225002E722BBFE02F6
:09081000E32289828A83E4932229
:10081900BB010CE58229F582E5833AF583E0225094
:1008290006E92582F8E622BBFE06E92582F8E222DE
:0D083900E58229F582E5833AF583E49322F8
:100AB200C2D5E830E70FB2D5E4C39BFBE49AFAE46F
:100AC20099F9E498F8EC30E717B2D5120AE812085F
:100AD20082E4C39BFBE49AFAE499F9E498F8800370
:100AE20012088230D50DE4C39FFFE49EFEE49DFD13
:040AF200E49CFC2262
:1008460075F008758200EF2FFFEE33FECD33CDCC69
:1008560033CCC58233C5829BED9AEC99E5829840EC
:100866000CF582EE9BFEED9AFDEC99FC0FD5F0D6C9
:10087600E4CEFBE4CDFAE4CCF9A88222B800C1B9F3
:100886000059BA002DEC8BF084CFCECDFCE5F0CB31
:10089600F97818EF2FFFEE33FEED33FDEC33FCEB6A
:1008A60033FB10D703994004EB99FB0FD8E5E4F925
:1008B600FA227818EF2FFFEE33FEED33FDEC33FC12
:1008C600C933C910D7059BE99A4007EC9BFCE99A06
:1008D600F90FD8E0E4C9FAE4CCFB2275F010EF2F4B
:1008E600FFEE33FEED33FDCC33CCC833C810D7074B
:1008F6009BEC9AE899400AED9BFDEC9AFCE899F886
:0E0906000FD5F0DAE4CDFBE4CCFAE4C8F92218
:00000001FF
