BL51 BANKED LINKER/LOCATER V6.22                                                        06/14/2024  11:53:55  PAGE 1


BL51 BANKED LINKER/LOCATER V6.22, INVOKED BY:
C:\KEIL\C51\BIN\BL51.EXE STARTUP.obj, Code.obj TO Serial RAMSIZE (256)


MEMORY MODEL: SMALL


INPUT MODULES INCLUDED:
  STARTUP.obj (?C_STARTUP)
  Code.obj (CODE)
  C:\KEIL\C51\LIB\C51S.LIB (?C_INIT)
  C:\KEIL\C51\LIB\C51S.LIB (?C?CLDPTR)
  C:\KEIL\C51\LIB\C51S.LIB (?C?CLDOPTR)
  C:\KEIL\C51\LIB\C51S.LIB (?C?SLDIV)
  C:\KEIL\C51\LIB\C51S.LIB (?C?ULDIV)


LINK MAP OF MODULE:  Serial (?C_STARTUP)


            TYPE    BASE      LENGTH    RELOCATION   SEGMENT NAME
            -----------------------------------------------------

            * * * * * * *   D A T A   M E M O R Y   * * * * * * *
            REG     0000H     0008H     ABSOLUTE     "REG BANK 0"
            DATA    0008H     0066H     UNIT         ?DT?CODE
            DATA    006EH     0006H     UNIT         _DATA_GROUP_
            IDATA   0074H     0001H     UNIT         ?STACK

            * * * * * * *   C O D E   M E M O R Y   * * * * * * *
            CODE    0000H     0003H     ABSOLUTE     
                    0003H     0020H                  *** GAP ***
            CODE    0023H     0003H     ABSOLUTE     
                    0026H     07DAH                  *** GAP ***
            CODE    0800H     0114H     UNIT         ?C?LIB_CODE
            CODE    0914H     00A8H     UNIT         ?PR?INTERRUPTUART?CODE
            CODE    09BCH     008CH     UNIT         ?C_C51STARTUP
            CODE    0A48H     006AH     UNIT         ?PR?_ISSAME?CODE
            CODE    0AB2H     0044H     UNIT         ?C?LDIV
            CODE    0AF6H     003CH     UNIT         ?PR?_SENDSTRING?CODE
            CODE    0B32H     0028H     UNIT         ?PR?_CONFIGUART?CODE
            CODE    0B5AH     0014H     UNIT         ?CO?CODE
            CODE    0B6EH     000BH     UNIT         ?PR?MAIN?CODE
            CODE    0B79H     0005H     UNIT         ?C_INITSEG



OVERLAY MAP OF MODULE:   Serial (?C_STARTUP)


SEGMENT                          DATA_GROUP 
  +--> CALLED SEGMENT          START    LENGTH
----------------------------------------------
?C_C51STARTUP                  -----    -----
  +--> ?PR?MAIN?CODE
  +--> ?C_INITSEG

?PR?MAIN?CODE                  -----    -----
BL51 BANKED LINKER/LOCATER V6.22                                                      06/14/2024  11:53:55  PAGE 2


  +--> ?PR?_CONFIGUART?CODE

*** NEW ROOT ***************************************************

?PR?INTERRUPTUART?CODE         -----    -----
  +--> ?CO?CODE
  +--> ?PR?_ISSAME?CODE
  +--> ?PR?_SENDSTRING?CODE

?PR?_ISSAME?CODE               006EH    0006H

?PR?_SENDSTRING?CODE           006EH    0005H



SYMBOL TABLE OF MODULE:  Serial (?C_STARTUP)

  VALUE           TYPE          NAME
  ----------------------------------

  -------         MODULE        ?C_STARTUP
  C:09BCH         SEGMENT       ?C_C51STARTUP
  I:0074H         SEGMENT       ?STACK
  C:0000H         PUBLIC        ?C_STARTUP
  D:00E0H         SYMBOL        ACC
  D:00F0H         SYMBOL        B
  D:0083H         SYMBOL        DPH
  D:0082H         SYMBOL        DPL
  N:0000H         SYMBOL        IBPSTACK
  N:0100H         SYMBOL        IBPSTACKTOP
  N:0080H         SYMBOL        IDATALEN
  C:09BFH         SYMBOL        IDATALOOP
  N:0000H         SYMBOL        PBPSTACK
  N:0100H         SYMBOL        PBPSTACKTOP
  N:0000H         SYMBOL        PDATALEN
  N:0000H         SYMBOL        PDATASTART
  N:0000H         SYMBOL        PPAGE
  N:0000H         SYMBOL        PPAGEENABLE
  D:00A0H         SYMBOL        PPAGE_SFR
  D:0081H         SYMBOL        SP
  C:09BCH         SYMBOL        STARTUP1
  N:0000H         SYMBOL        XBPSTACK
  N:0000H         SYMBOL        XBPSTACKTOP
  N:0000H         SYMBOL        XDATALEN
  N:0000H         SYMBOL        XDATASTART
  C:0000H         LINE#         126
  C:09BCH         LINE#         133
  C:09BEH         LINE#         134
  C:09BFH         LINE#         135
  C:09C0H         LINE#         136
  C:09C2H         LINE#         185
  C:09C5H         LINE#         196
  -------         ENDMOD        ?C_STARTUP

  -------         MODULE        CODE
  C:0000H         SYMBOL        _ICE_DUMMY_
  D:0090H         PUBLIC        P1
BL51 BANKED LINKER/LOCATER V6.22                                                      06/14/2024  11:53:55  PAGE 3


  D:00A0H         PUBLIC        P2
  D:00B0H         PUBLIC        P3
  B:00A8H.7       PUBLIC        EA
  D:00A8H         PUBLIC        IE
  C:0914H         PUBLIC        InterruptUART
  C:0B32H         PUBLIC        _ConfigUART
  B:00A8H.4       PUBLIC        ES
  D:00B8H         PUBLIC        IP
  B:0098H.0       PUBLIC        RI
  B:0098H.1       PUBLIC        TI
  C:0B6EH         PUBLIC        main
  C:0AF6H         PUBLIC        _sendString
  D:000AH         PUBLIC        inputString
  D:0099H         PUBLIC        SBUF
  D:0098H         PUBLIC        SCON
  D:0089H         PUBLIC        TMOD
  D:0088H         PUBLIC        TCON
  B:00A8H.3       PUBLIC        ET1
  D:008DH         PUBLIC        TH1
  D:008BH         PUBLIC        TL1
  B:0088H.6       PUBLIC        TR1
  C:0A4EH         PUBLIC        _isSame
  D:00C8H         PUBLIC        T2CON
  D:00D0H         PUBLIC        PSW
  -------         PROC          MAIN
  C:0B6EH         LINE#         11
  C:0B6EH         LINE#         12
  C:0B70H         LINE#         13
  C:0B77H         LINE#         14
  C:0B77H         LINE#         16
  -------         ENDPROC       MAIN
  -------         PROC          _SENDSTRING
  D:006EH         SYMBOL        s
  D:0071H         SYMBOL        len
  -------         DO            
  D:0006H         SYMBOL        i
  -------         ENDDO         
  C:0AF6H         LINE#         19
  C:0B00H         LINE#         21
  C:0B12H         LINE#         22
  C:0B25H         LINE#         23
  C:0B28H         LINE#         24
  C:0B2AH         LINE#         25
  C:0B31H         LINE#         26
  -------         ENDPROC       _SENDSTRING
  -------         PROC          L?0032
  -------         ENDPROC       L?0032
  -------         PROC          _ISSAME
  D:006EH         SYMBOL        s1
  D:0071H         SYMBOL        s2
  -------         DO            
  D:0006H         SYMBOL        i
  -------         ENDDO         
  C:0A4EH         LINE#         28
  C:0A54H         LINE#         30
  C:0A69H         LINE#         31
  C:0A6CH         LINE#         32
BL51 BANKED LINKER/LOCATER V6.22                                                      06/14/2024  11:53:55  PAGE 4


  C:0A6CH         LINE#         36
  C:0A8EH         LINE#         37
  C:0A9EH         LINE#         38
  C:0AA1H         LINE#         39
  C:0AA1H         LINE#         40
  C:0AA8H         LINE#         41
  C:0AB1H         LINE#         42
  -------         ENDPROC       _ISSAME
  -------         PROC          _CONFIGUART
  D:0006H         SYMBOL        baud
  C:0B32H         LINE#         44
  C:0B32H         LINE#         45
  C:0B35H         LINE#         46
  C:0B38H         LINE#         47
  C:0B3BH         LINE#         48
  C:0B50H         LINE#         49
  C:0B53H         LINE#         50
  C:0B55H         LINE#         51
  C:0B57H         LINE#         52
  C:0B59H         LINE#         53
  -------         ENDPROC       _CONFIGUART
  -------         PROC          INTERRUPTUART
  -------         DO            
  D:0008H         SYMBOL        index
  -------         ENDDO         
  C:0914H         LINE#         55
  C:092FH         LINE#         58
  C:0932H         LINE#         59
  C:0934H         LINE#         60
  C:0942H         LINE#         62
  C:0955H         LINE#         63
  C:0964H         LINE#         64
  C:0971H         LINE#         65
  C:0974H         LINE#         66
  C:0974H         LINE#         67
  C:0974H         LINE#         68
  C:0985H         LINE#         69
  C:0992H         LINE#         70
  C:0995H         LINE#         71
  C:099BH         LINE#         72
  C:099EH         LINE#         73
  C:099EH         LINE#         76
  C:099EH         LINE#         77
  C:09A1H         LINE#         78
  C:09A3H         LINE#         79
  C:09A3H         LINE#         80
  -------         ENDPROC       INTERRUPTUART
  -------         ENDMOD        CODE

  -------         MODULE        ?C?CLDPTR
  C:0800H         PUBLIC        ?C?CLDPTR
  -------         ENDMOD        ?C?CLDPTR

  -------         MODULE        ?C?CLDOPTR
  C:0819H         PUBLIC        ?C?CLDOPTR
  -------         ENDMOD        ?C?CLDOPTR

BL51 BANKED LINKER/LOCATER V6.22                                                      06/14/2024  11:53:55  PAGE 5


  -------         MODULE        ?C?SLDIV
  C:0AB2H         PUBLIC        ?C?SLDIV
  -------         ENDMOD        ?C?SLDIV

  -------         MODULE        ?C?ULDIV
  C:0882H         PUBLIC        ?C?ULDIV
  -------         ENDMOD        ?C?ULDIV

******************************************************************************
* RESTRICTED VERSION WITH 0800H BYTE CODE SIZE LIMIT; USED: 01ABH BYTE (20%) *
******************************************************************************

Program Size: data=117.0 xdata=0 code=900
LINK/LOCATE RUN COMPLETE.  0 WARNING(S),  0 ERROR(S)
